{
  "contractName": "ScoreStorage",
  "abi": [
    {
      "inputs": [
        {
          "internalType": "uint256",
          "name": "",
          "type": "uint256"
        }
      ],
      "name": "tournaments",
      "outputs": [
        {
          "internalType": "uint256",
          "name": "id",
          "type": "uint256"
        },
        {
          "internalType": "uint256",
          "name": "startTime",
          "type": "uint256"
        },
        {
          "internalType": "string",
          "name": "status",
          "type": "string"
        }
      ],
      "stateMutability": "view",
      "type": "function",
      "constant": true
    },
    {
      "inputs": [
        {
          "internalType": "uint256",
          "name": "_id",
          "type": "uint256"
        },
        {
          "internalType": "uint256",
          "name": "_startTime",
          "type": "uint256"
        },
        {
          "internalType": "string",
          "name": "_status",
          "type": "string"
        }
      ],
      "name": "addTournament",
      "outputs": [],
      "stateMutability": "nonpayable",
      "type": "function"
    },
    {
      "inputs": [
        {
          "internalType": "uint256",
          "name": "_tournamentId",
          "type": "uint256"
        },
        {
          "internalType": "string",
          "name": "_name",
          "type": "string"
        },
        {
          "internalType": "uint256",
          "name": "_eloScore",
          "type": "uint256"
        }
      ],
      "name": "addPlayerToTournament",
      "outputs": [],
      "stateMutability": "nonpayable",
      "type": "function"
    },
    {
      "inputs": [
        {
          "internalType": "uint256",
          "name": "_tournamentId",
          "type": "uint256"
        }
      ],
      "name": "getTournamentPlayerCount",
      "outputs": [
        {
          "internalType": "uint256",
          "name": "",
          "type": "uint256"
        }
      ],
      "stateMutability": "view",
      "type": "function",
      "constant": true
    },
    {
      "inputs": [
        {
          "internalType": "uint256",
          "name": "_tournamentId",
          "type": "uint256"
        },
        {
          "internalType": "uint256",
          "name": "_playerIndex",
          "type": "uint256"
        }
      ],
      "name": "getTournamentPlayer",
      "outputs": [
        {
          "internalType": "string",
          "name": "name",
          "type": "string"
        },
        {
          "internalType": "uint256",
          "name": "eloScore",
          "type": "uint256"
        }
      ],
      "stateMutability": "view",
      "type": "function",
      "constant": true
    },
    {
      "inputs": [],
      "name": "getTournamentsCount",
      "outputs": [
        {
          "internalType": "uint256",
          "name": "",
          "type": "uint256"
        }
      ],
      "stateMutability": "view",
      "type": "function",
      "constant": true
    }
  ],
  "bytecode": "0x608060405234801561001057600080fd5b5061097a806100206000396000f3fe608060405234801561001057600080fd5b50600436106100625760003560e01c80632d5602da146100675780632ffaf1951461008557806369cf2dd7146101545780636c884cca146101965780637503e1b7146102655780637ea5a9f71461031a575b600080fd5b61006f6103d2565b6040518082815260200191505060405180910390f35b6101526004803603606081101561009b57600080fd5b8101908080359060200190929190803590602001906401000000008111156100c257600080fd5b8201836020820111156100d457600080fd5b803590602001918460018302840111640100000000831117156100f657600080fd5b91908080601f016020809104026020016040519081016040528093929190818152602001838380828437600081840152601f19601f820116905080830192505050505050509192919290803590602001909291905050506103de565b005b6101806004803603602081101561016a57600080fd5b81019080803590602001909291905050506104e2565b6040518082815260200191505060405180910390f35b610263600480360360608110156101ac57600080fd5b810190808035906020019092919080359060200190929190803590602001906401000000008111156101dd57600080fd5b8201836020820111156101ef57600080fd5b8035906020019184600183028401116401000000008311171561021157600080fd5b91908080601f016020809104026020016040519081016040528093929190818152602001838380828437600081840152601f19601f820116905080830192505050505050509192919290505050610586565b005b6102916004803603602081101561027b57600080fd5b81019080803590602001909291905050506105da565b6040518084815260200183815260200180602001828103825283818151815260200191508051906020019080838360005b838110156102dd5780820151818401526020810190506102c2565b50505050905090810190601f16801561030a5780820380516001836020036101000a031916815260200191505b5094505050505060405180910390f35b6103506004803603604081101561033057600080fd5b8101908080359060200190929190803590602001909291905050506106a9565b6040518080602001838152602001828103825284818151815260200191508051906020019080838360005b8381101561039657808201518184015260208101905061037b565b50505050905090810190601f1680156103c35780820380516001836020036101000a031916815260200191505b50935050505060405180910390f35b60008080549050905090565b6000805490508310610458576040517f08c379a000000000000000000000000000000000000000000000000000000000815260040180806020018281038252601a8152602001807f546f75726e616d656e7420646f6573206e6f742065786973742e00000000000081525060200191505060405180910390fd5b6000838154811061046557fe5b9060005260206000209060040201600101604051806040016040528084815260200183815250908060018154018082558091505060019003906000526020600020906002020160009091909190915060008201518160000190805190602001906104d09291906108a7565b50602082015181600101555050505050565b60008080549050821061055d576040517f08c379a000000000000000000000000000000000000000000000000000000000815260040180806020018281038252601a8152602001807f546f75726e616d656e7420646f6573206e6f742065786973742e00000000000081525060200191505060405180910390fd5b6000828154811061056a57fe5b9060005260206000209060040201600101805490509050919050565b6000806001816001815401808255809150500390600052602060002090600402019050838160000181905550828160020181905550818160030190805190602001906105d39291906108a7565b5050505050565b600081815481106105e757fe5b9060005260206000209060040201600091509050806000015490806002015490806003018054600181600116156101000203166002900480601f01602080910402602001604051908101604052809291908181526020018280546001816001161561010002031660029004801561069f5780601f106106745761010080835404028352916020019161069f565b820191906000526020600020905b81548152906001019060200180831161068257829003601f168201915b5050505050905083565b6060600080805490508410610726576040517f08c379a000000000000000000000000000000000000000000000000000000000815260040180806020018281038252601a8152602001807f546f75726e616d656e7420646f6573206e6f742065786973742e00000000000081525060200191505060405180910390fd5b6000848154811061073357fe5b90600052602060002090600402016001018054905083106107bc576040517f08c379a00000000000000000000000000000000000000000000000000000000081526004018080602001828103825260168152602001807f506c6179657220646f6573206e6f742065786973742e0000000000000000000081525060200191505060405180910390fd5b60008085815481106107ca57fe5b906000526020600020906004020160010184815481106107e657fe5b90600052602060002090600202019050806000018160010154818054600181600116156101000203166002900480601f0160208091040260200160405190810160405280929190818152602001828054600181600116156101000203166002900480156108945780601f1061086957610100808354040283529160200191610894565b820191906000526020600020905b81548152906001019060200180831161087757829003601f168201915b5050505050915092509250509250929050565b828054600181600116156101000203166002900490600052602060002090601f016020900481019282601f106108e857805160ff1916838001178555610916565b82800160010185558215610916579182015b828111156109155782518255916020019190600101906108fa565b5b5090506109239190610927565b5090565b5b80821115610940576000816000905550600101610928565b509056fea2646970667358221220c66c627e4f91e2b94efee8b4c24e628442a004bf57aac5a5f82c12d5bfe09dd864736f6c63430007030033",
  "immutableReferences": {},
  "source": "// SPDX-License-Identifier: MIT\npragma solidity >=0.4.22 <0.9.0;\n\ncontract ScoreStorage {\n    struct Player {\n        string name;\n        uint eloScore;\n    }\n\n    struct Tournament {\n        uint id;\n        Player[] players;\n        uint startTime;\n        string status; // \"upcoming\", \"ongoing\", \"completed\"\n    }\n\n    Tournament[] public tournaments;\n\n    function addTournament(uint _id, uint _startTime, string memory _status) public {\n        Tournament storage newTournament = tournaments.push();\n        newTournament.id = _id;\n        newTournament.startTime = _startTime;\n        newTournament.status = _status;\n    }\n\n    function addPlayerToTournament(uint _tournamentId, string memory _name, uint _eloScore) public {\n        require(_tournamentId < tournaments.length, \"Tournament does not exist.\");\n        tournaments[_tournamentId].players.push(Player(_name, _eloScore));\n    }\n\n    function getTournamentPlayerCount(uint _tournamentId) public view returns (uint) {\n        require(_tournamentId < tournaments.length, \"Tournament does not exist.\");\n        return tournaments[_tournamentId].players.length;\n    }\n\n    function getTournamentPlayer(uint _tournamentId, uint _playerIndex) public view returns (string memory name, uint eloScore) {\n        require(_tournamentId < tournaments.length, \"Tournament does not exist.\");\n        require(_playerIndex < tournaments[_tournamentId].players.length, \"Player does not exist.\");\n        Player storage player = tournaments[_tournamentId].players[_playerIndex];\n        return (player.name, player.eloScore);\n    }\n\n    function getTournamentsCount() public view returns (uint) {\n    return tournaments.length;\n}\n}\n\n",
  "sourcePath": "/usr/src/blockchain_etherum/contracts/ScoreStorage.sol",
  "compiler": {
    "name": "solc",
    "version": "0.7.3+commit.9bfce1f6.Emscripten.clang"
  },
  "schemaVersion": "3.4.16",
  "updatedAt": "2024-04-22T10:11:56.964Z",
  "networkType": "ethereum",
  "devdoc": {
    "kind": "dev",
    "methods": {},
    "version": 1
  },
  "userdoc": {
    "kind": "user",
    "methods": {},
    "version": 1
  }
}