{
  "contractName": "ScoreStorage",
  "abi": [
    {
      "inputs": [
        {
          "internalType": "uint256",
          "name": "",
          "type": "uint256"
        }
      ],
      "name": "tournaments",
      "outputs": [
        {
          "internalType": "uint256",
          "name": "id",
          "type": "uint256"
        },
        {
          "internalType": "string",
          "name": "name",
          "type": "string"
        }
      ],
      "stateMutability": "view",
      "type": "function",
      "constant": true
    },
    {
      "inputs": [
        {
          "internalType": "uint256",
          "name": "_id",
          "type": "uint256"
        },
        {
          "internalType": "string",
          "name": "_name",
          "type": "string"
        },
        {
          "internalType": "string[]",
          "name": "_playerNames",
          "type": "string[]"
        }
      ],
      "name": "addTournament",
      "outputs": [],
      "stateMutability": "nonpayable",
      "type": "function"
    },
    {
      "inputs": [
        {
          "internalType": "uint256",
          "name": "_tournamentId",
          "type": "uint256"
        }
      ],
      "name": "getTournamentPlayerCount",
      "outputs": [
        {
          "internalType": "uint256",
          "name": "",
          "type": "uint256"
        }
      ],
      "stateMutability": "view",
      "type": "function",
      "constant": true
    },
    {
      "inputs": [
        {
          "internalType": "uint256",
          "name": "_tournamentId",
          "type": "uint256"
        },
        {
          "internalType": "uint256",
          "name": "_playerIndex",
          "type": "uint256"
        }
      ],
      "name": "getTournamentPlayer",
      "outputs": [
        {
          "internalType": "string",
          "name": "name",
          "type": "string"
        }
      ],
      "stateMutability": "view",
      "type": "function",
      "constant": true
    },
    {
      "inputs": [],
      "name": "getTournamentsCount",
      "outputs": [
        {
          "internalType": "uint256",
          "name": "",
          "type": "uint256"
        }
      ],
      "stateMutability": "view",
      "type": "function",
      "constant": true
    },
    {
      "inputs": [
        {
          "internalType": "uint256",
          "name": "_tournamentId",
          "type": "uint256"
        }
      ],
      "name": "getRankings",
      "outputs": [
        {
          "internalType": "string[]",
          "name": "",
          "type": "string[]"
        }
      ],
      "stateMutability": "view",
      "type": "function",
      "constant": true
    }
  ],
  "bytecode": "0x608060405234801561001057600080fd5b50610cf4806100206000396000f3fe608060405234801561001057600080fd5b50600436106100625760003560e01c80631f9db247146100675780632d5602da14610097578063372400ed146100b557806369cf2dd7146100d15780637503e1b7146101015780637ea5a9f714610132575b600080fd5b610081600480360381019061007c9190610818565b610162565b60405161008e9190610a86565b60405180910390f35b61009f6102b0565b6040516100ac9190610b0a565b60405180910390f35b6100cf60048036038101906100ca9190610841565b6102bc565b005b6100eb60048036038101906100e69190610818565b6103dc565b6040516100f89190610b0a565b60405180910390f35b61011b60048036038101906101169190610818565b61044d565b604051610129929190610b25565b60405180910390f35b61014c600480360381019061014791906108c0565b610516565b6040516101599190610aa8565b60405180910390f35b606060008054905082106101ab576040517f08c379a00000000000000000000000000000000000000000000000000000000081526004016101a290610aca565b60405180910390fd5b600082815481106101b857fe5b9060005260206000209060040201600301805480602002602001604051908101604052809291908181526020016000905b828210156102a5578382906000526020600020018054600181600116156101000203166002900480601f0160208091040260200160405190810160405280929190818152602001828054600181600116156101000203166002900480156102915780601f1061026657610100808354040283529160200191610291565b820191906000526020600020905b81548152906001019060200180831161027457829003601f168201915b5050505050815260200190600101906101e9565b505050509050919050565b60008080549050905090565b60008060018160018154018082558091505003906000526020600020906004020190508381600001819055508281600101908051906020019061030092919061069e565b5060005b82518110156103d55781600201604051806020016040528085848151811061032857fe5b602002602001015181525090806001815401808255809150506001900390600052602060002001600090919091909150600082015181600001908051906020019061037492919061069e565b5050508160030183828151811061038757fe5b60200260200101519080600181540180825580915050600190039060005260206000200160009091909190915090805190602001906103c792919061069e565b508080600101915050610304565b5050505050565b600080805490508210610424576040517f08c379a000000000000000000000000000000000000000000000000000000000815260040161041b90610aca565b60405180910390fd5b6000828154811061043157fe5b9060005260206000209060040201600201805490509050919050565b6000818154811061045a57fe5b9060005260206000209060040201600091509050806000015490806001018054600181600116156101000203166002900480601f01602080910402602001604051908101604052809291908181526020018280546001816001161561010002031660029004801561050c5780601f106104e15761010080835404028352916020019161050c565b820191906000526020600020905b8154815290600101906020018083116104ef57829003601f168201915b5050505050905082565b6060600080549050831061055f576040517f08c379a000000000000000000000000000000000000000000000000000000000815260040161055690610aca565b60405180910390fd5b6000838154811061056c57fe5b90600052602060002090600402016002018054905082106105c2576040517f08c379a00000000000000000000000000000000000000000000000000000000081526004016105b990610aea565b60405180910390fd5b60008084815481106105d057fe5b906000526020600020906004020160020183815481106105ec57fe5b906000526020600020019050806000018054600181600116156101000203166002900480601f0160208091040260200160405190810160405280929190818152602001828054600181600116156101000203166002900480156106905780601f1061066557610100808354040283529160200191610690565b820191906000526020600020905b81548152906001019060200180831161067357829003601f168201915b505050505091505092915050565b828054600181600116156101000203166002900490600052602060002090601f016020900481019282601f106106df57805160ff191683800117855561070d565b8280016001018555821561070d579182015b8281111561070c5782518255916020019190600101906106f1565b5b50905061071a919061071e565b5090565b5b8082111561073757600081600090555060010161071f565b5090565b600082601f83011261074c57600080fd5b813561075f61075a82610b86565b610b55565b9150818183526020840193506020810190508360005b838110156107a5578135860161078b88826107af565b845260208401935060208301925050600181019050610775565b5050505092915050565b600082601f8301126107c057600080fd5b81356107d36107ce82610bb2565b610b55565b915080825260208301602083018583830111156107ef57600080fd5b6107fa838284610c52565b50505092915050565b60008135905061081281610ca7565b92915050565b60006020828403121561082a57600080fd5b600061083884828501610803565b91505092915050565b60008060006060848603121561085657600080fd5b600061086486828701610803565b935050602084013567ffffffffffffffff81111561088157600080fd5b61088d868287016107af565b925050604084013567ffffffffffffffff8111156108aa57600080fd5b6108b68682870161073b565b9150509250925092565b600080604083850312156108d357600080fd5b60006108e185828601610803565b92505060206108f285828601610803565b9150509250929050565b60006109088383610985565b905092915050565b600061091b82610bf2565b6109258185610c15565b93508360208202850161093785610be2565b8060005b85811015610973578484038952815161095485826108fc565b945061095f83610c08565b925060208a0199505060018101905061093b565b50829750879550505050505092915050565b600061099082610bfd565b61099a8185610c26565b93506109aa818560208601610c61565b6109b381610c96565b840191505092915050565b60006109c982610bfd565b6109d38185610c37565b93506109e3818560208601610c61565b6109ec81610c96565b840191505092915050565b6000610a04601a83610c37565b91507f546f75726e616d656e7420646f6573206e6f742065786973742e0000000000006000830152602082019050919050565b6000610a44601683610c37565b91507f506c6179657220646f6573206e6f742065786973742e000000000000000000006000830152602082019050919050565b610a8081610c48565b82525050565b60006020820190508181036000830152610aa08184610910565b905092915050565b60006020820190508181036000830152610ac281846109be565b905092915050565b60006020820190508181036000830152610ae3816109f7565b9050919050565b60006020820190508181036000830152610b0381610a37565b9050919050565b6000602082019050610b1f6000830184610a77565b92915050565b6000604082019050610b3a6000830185610a77565b8181036020830152610b4c81846109be565b90509392505050565b6000604051905081810181811067ffffffffffffffff82111715610b7c57610b7b610c94565b5b8060405250919050565b600067ffffffffffffffff821115610ba157610ba0610c94565b5b602082029050602081019050919050565b600067ffffffffffffffff821115610bcd57610bcc610c94565b5b601f19601f8301169050602081019050919050565b6000819050602082019050919050565b600081519050919050565b600081519050919050565b6000602082019050919050565b600082825260208201905092915050565b600082825260208201905092915050565b600082825260208201905092915050565b6000819050919050565b82818337600083830152505050565b60005b83811015610c7f578082015181840152602081019050610c64565b83811115610c8e576000848401525b50505050565bfe5b6000601f19601f8301169050919050565b610cb081610c48565b8114610cbb57600080fd5b5056fea264697066735822122077b0227cc6516b26efefaedff9cdd1331613f271ba75201e89dcbdab8df29c8a64736f6c63430007030033",
  "immutableReferences": {},
  "source": "// SPDX-License-Identifier: MIT\npragma solidity >=0.4.22 <0.9.0;\npragma experimental ABIEncoderV2;\n\ncontract ScoreStorage {\n    struct Player {\n        string name;\n    }\n\n    struct Tournament {\n        uint id;\n        string name;\n        Player[] players;\n        string[] rankings; // Store player names according to their ranks\n    }\n\n    Tournament[] public tournaments;\n\n    function addTournament(uint _id, string memory _name, string[] memory _playerNames) public {\n        Tournament storage newTournament = tournaments.push();\n        newTournament.id = _id;\n        newTournament.name = _name;\n\n        // Add players and rankings in a single transaction\n        for (uint i = 0; i < _playerNames.length; i++) {\n            newTournament.players.push(Player(_playerNames[i]));\n            newTournament.rankings.push(_playerNames[i]);\n        }\n    }\n\n    function getTournamentPlayerCount(uint _tournamentId) public view returns (uint) {\n        require(_tournamentId < tournaments.length, \"Tournament does not exist.\");\n        return tournaments[_tournamentId].players.length;\n    }\n\n    function getTournamentPlayer(uint _tournamentId, uint _playerIndex) public view returns (string memory name) {\n        require(_tournamentId < tournaments.length, \"Tournament does not exist.\");\n        require(_playerIndex < tournaments[_tournamentId].players.length, \"Player does not exist.\");\n        Player storage player = tournaments[_tournamentId].players[_playerIndex];\n        return player.name;\n    }\n\n    function getTournamentsCount() public view returns (uint) {\n        return tournaments.length;\n    }\n\n    function getRankings(uint _tournamentId) public view returns (string[] memory) {\n        require(_tournamentId < tournaments.length, \"Tournament does not exist.\");\n        return tournaments[_tournamentId].rankings;\n    }\n}\n",
  "sourcePath": "/usr/src/blockchain_etherum/contracts/ScoreStorage.sol",
  "compiler": {
    "name": "solc",
    "version": "0.7.3+commit.9bfce1f6.Emscripten.clang"
  },
  "schemaVersion": "3.4.16",
  "updatedAt": "2024-07-20T14:38:44.300Z",
  "networkType": "ethereum",
  "devdoc": {
    "kind": "dev",
    "methods": {},
    "version": 1
  },
  "userdoc": {
    "kind": "user",
    "methods": {},
    "version": 1
  }
}